{
  "_format": "hh-sol-artifact-1",
  "contractName": "StackupVault",
  "sourceName": "contracts/StackupVault.sol",
  "abi": [
    {
      "inputs": [
        {
          "internalType": "address",
          "name": "uniAddr",
          "type": "address"
        },
        {
          "internalType": "address",
          "name": "linkAddr",
          "type": "address"
        }
      ],
      "stateMutability": "nonpayable",
      "type": "constructor"
    },
    {
      "inputs": [
        {
          "internalType": "address",
          "name": "",
          "type": "address"
        }
      ],
      "name": "claimTokens",
      "outputs": [
        {
          "internalType": "contract sToken",
          "name": "",
          "type": "address"
        }
      ],
      "stateMutability": "view",
      "type": "function"
    },
    {
      "inputs": [
        {
          "internalType": "address",
          "name": "tokenAddr",
          "type": "address"
        },
        {
          "internalType": "uint256",
          "name": "amount",
          "type": "uint256"
        }
      ],
      "name": "deposit",
      "outputs": [],
      "stateMutability": "nonpayable",
      "type": "function"
    },
    {
      "inputs": [
        {
          "internalType": "address",
          "name": "",
          "type": "address"
        }
      ],
      "name": "tokens",
      "outputs": [
        {
          "internalType": "contract IERC20",
          "name": "",
          "type": "address"
        }
      ],
      "stateMutability": "view",
      "type": "function"
    },
    {
      "inputs": [
        {
          "internalType": "address",
          "name": "tokenAddr",
          "type": "address"
        },
        {
          "internalType": "uint256",
          "name": "amount",
          "type": "uint256"
        }
      ],
      "name": "withdraw",
      "outputs": [],
      "stateMutability": "nonpayable",
      "type": "function"
    }
  ],
  "bytecode": "0x60806040523480156200001157600080fd5b5060405162002fee38038062002fee833981810160405281019062000037919062000341565b6040516200004590620002c9565b620000509062000439565b604051809103906000f0801580156200006d573d6000803e3d6000fd5b50600160008473ffffffffffffffffffffffffffffffffffffffff1673ffffffffffffffffffffffffffffffffffffffff16815260200190815260200160002060006101000a81548173ffffffffffffffffffffffffffffffffffffffff021916908373ffffffffffffffffffffffffffffffffffffffff160217905550604051620000f990620002c9565b620001049062000510565b604051809103906000f08015801562000121573d6000803e3d6000fd5b50600160008373ffffffffffffffffffffffffffffffffffffffff1673ffffffffffffffffffffffffffffffffffffffff16815260200190815260200160002060006101000a81548173ffffffffffffffffffffffffffffffffffffffff021916908373ffffffffffffffffffffffffffffffffffffffff160217905550736b175474e89094c44da98b954eedeac495271d0f6000808473ffffffffffffffffffffffffffffffffffffffff1673ffffffffffffffffffffffffffffffffffffffff16815260200190815260200160002060006101000a81548173ffffffffffffffffffffffffffffffffffffffff021916908373ffffffffffffffffffffffffffffffffffffffff16021790555073514910771af9ca656af840dff83e8264ecf986ca6000808373ffffffffffffffffffffffffffffffffffffffff1673ffffffffffffffffffffffffffffffffffffffff16815260200190815260200160002060006101000a81548173ffffffffffffffffffffffffffffffffffffffff021916908373ffffffffffffffffffffffffffffffffffffffff160217905550505062000547565b61226c8062000d8283390190565b600080fd5b600073ffffffffffffffffffffffffffffffffffffffff82169050919050565b60006200030982620002dc565b9050919050565b6200031b81620002fc565b81146200032757600080fd5b50565b6000815190506200033b8162000310565b92915050565b600080604083850312156200035b576200035a620002d7565b5b60006200036b858286016200032a565b92505060206200037e858286016200032a565b9150509250929050565b600082825260208201905092915050565b7f436c61696d20556e690000000000000000000000000000000000000000000000600082015250565b6000620003d160098362000388565b9150620003de8262000399565b602082019050919050565b7f73554e4900000000000000000000000000000000000000000000000000000000600082015250565b60006200042160048362000388565b91506200042e82620003e9565b602082019050919050565b600060408201905081810360008301526200045481620003c2565b90508181036020830152620004698162000412565b9050919050565b7f436c61696d204c696e6b00000000000000000000000000000000000000000000600082015250565b6000620004a8600a8362000388565b9150620004b58262000470565b602082019050919050565b7f734c494e4b000000000000000000000000000000000000000000000000000000600082015250565b6000620004f860058362000388565b91506200050582620004c0565b602082019050919050565b600060408201905081810360008301526200052b8162000499565b905081810360208301526200054081620004e9565b9050919050565b61082b80620005576000396000f3fe608060405234801561001057600080fd5b506004361061004c5760003560e01c806347e7ef2414610051578063df8de3e71461006d578063e48603391461009d578063f3fef3a3146100cd575b600080fd5b61006b60048036038101906100669190610572565b6100e9565b005b610087600480360381019061008291906105b2565b6102af565b604051610094919061063e565b60405180910390f35b6100b760048036038101906100b291906105b2565b6102e2565b6040516100c4919061067a565b60405180910390f35b6100e760048036038101906100e29190610572565b610315565b005b8173ffffffffffffffffffffffffffffffffffffffff166323b872dd3330846040518463ffffffff1660e01b8152600401610126939291906106b3565b6020604051808303816000875af1158015610145573d6000803e3d6000fd5b505050506040513d601f19601f820116820180604052508101906101699190610722565b506000600160008473ffffffffffffffffffffffffffffffffffffffff1673ffffffffffffffffffffffffffffffffffffffff16815260200190815260200160002060009054906101000a900473ffffffffffffffffffffffffffffffffffffffff169050600073ffffffffffffffffffffffffffffffffffffffff168173ffffffffffffffffffffffffffffffffffffffff160361023d576040517f08c379a0000000000000000000000000000000000000000000000000000000008152600401610234906107ac565b60405180910390fd5b8073ffffffffffffffffffffffffffffffffffffffff166340c10f1933846040518363ffffffff1660e01b81526004016102789291906107cc565b600060405180830381600087803b15801561029257600080fd5b505af11580156102a6573d6000803e3d6000fd5b50505050505050565b60016020528060005260406000206000915054906101000a900473ffffffffffffffffffffffffffffffffffffffff1681565b60006020528060005260406000206000915054906101000a900473ffffffffffffffffffffffffffffffffffffffff1681565b6000600160008473ffffffffffffffffffffffffffffffffffffffff1673ffffffffffffffffffffffffffffffffffffffff16815260200190815260200160002060009054906101000a900473ffffffffffffffffffffffffffffffffffffffff169050600073ffffffffffffffffffffffffffffffffffffffff168173ffffffffffffffffffffffffffffffffffffffff16036103e8576040517f08c379a00000000000000000000000000000000000000000000000000000000081526004016103df906107ac565b60405180910390fd5b8073ffffffffffffffffffffffffffffffffffffffff16639dc29fac33846040518363ffffffff1660e01b81526004016104239291906107cc565b600060405180830381600087803b15801561043d57600080fd5b505af1158015610451573d6000803e3d6000fd5b505050508273ffffffffffffffffffffffffffffffffffffffff1663a9059cbb33846040518363ffffffff1660e01b81526004016104909291906107cc565b6020604051808303816000875af11580156104af573d6000803e3d6000fd5b505050506040513d601f19601f820116820180604052508101906104d39190610722565b50505050565b600080fd5b600073ffffffffffffffffffffffffffffffffffffffff82169050919050565b6000610509826104de565b9050919050565b610519816104fe565b811461052457600080fd5b50565b60008135905061053681610510565b92915050565b6000819050919050565b61054f8161053c565b811461055a57600080fd5b50565b60008135905061056c81610546565b92915050565b60008060408385031215610589576105886104d9565b5b600061059785828601610527565b92505060206105a88582860161055d565b9150509250929050565b6000602082840312156105c8576105c76104d9565b5b60006105d684828501610527565b91505092915050565b6000819050919050565b60006106046105ff6105fa846104de565b6105df565b6104de565b9050919050565b6000610616826105e9565b9050919050565b60006106288261060b565b9050919050565b6106388161061d565b82525050565b6000602082019050610653600083018461062f565b92915050565b60006106648261060b565b9050919050565b61067481610659565b82525050565b600060208201905061068f600083018461066b565b92915050565b61069e816104fe565b82525050565b6106ad8161053c565b82525050565b60006060820190506106c86000830186610695565b6106d56020830185610695565b6106e260408301846106a4565b949350505050565b60008115159050919050565b6106ff816106ea565b811461070a57600080fd5b50565b60008151905061071c816106f6565b92915050565b600060208284031215610738576107376104d9565b5b60006107468482850161070d565b91505092915050565b600082825260208201905092915050565b7f496e76616c696420746f6b656e20616464726573730000000000000000000000600082015250565b600061079660158361074f565b91506107a182610760565b602082019050919050565b600060208201905081810360008301526107c581610789565b9050919050565b60006040820190506107e16000830185610695565b6107ee60208301846106a4565b939250505056fea264697066735822122055992c31e8bebbdb77fa834c2bcdc2595a844b9334accfc537604c0be884943364736f6c6343000812003360806040523480156200001157600080fd5b506040516200226c3803806200226c8339818101604052810190620000379190620002e8565b818181600390816200004a9190620005b8565b5080600490816200005c9190620005b8565b5050506200007f620000736200008760201b60201c565b6200008f60201b60201c565b50506200069f565b600033905090565b6000600560009054906101000a900473ffffffffffffffffffffffffffffffffffffffff16905081600560006101000a81548173ffffffffffffffffffffffffffffffffffffffff021916908373ffffffffffffffffffffffffffffffffffffffff1602179055508173ffffffffffffffffffffffffffffffffffffffff168173ffffffffffffffffffffffffffffffffffffffff167f8be0079c531659141344cd1fd0a4f28419497f9722a3daafe3b4186f6b6457e060405160405180910390a35050565b6000604051905090565b600080fd5b600080fd5b600080fd5b600080fd5b6000601f19601f8301169050919050565b7f4e487b7100000000000000000000000000000000000000000000000000000000600052604160045260246000fd5b620001be8262000173565b810181811067ffffffffffffffff82111715620001e057620001df62000184565b5b80604052505050565b6000620001f562000155565b9050620002038282620001b3565b919050565b600067ffffffffffffffff82111562000226576200022562000184565b5b620002318262000173565b9050602081019050919050565b60005b838110156200025e57808201518184015260208101905062000241565b60008484015250505050565b6000620002816200027b8462000208565b620001e9565b905082815260208101848484011115620002a0576200029f6200016e565b5b620002ad8482856200023e565b509392505050565b600082601f830112620002cd57620002cc62000169565b5b8151620002df8482602086016200026a565b91505092915050565b600080604083850312156200030257620003016200015f565b5b600083015167ffffffffffffffff81111562000323576200032262000164565b5b6200033185828601620002b5565b925050602083015167ffffffffffffffff81111562000355576200035462000164565b5b6200036385828601620002b5565b9150509250929050565b600081519050919050565b7f4e487b7100000000000000000000000000000000000000000000000000000000600052602260045260246000fd5b60006002820490506001821680620003c057607f821691505b602082108103620003d657620003d562000378565b5b50919050565b60008190508160005260206000209050919050565b60006020601f8301049050919050565b600082821b905092915050565b600060088302620004407fffffffffffffffffffffffffffffffffffffffffffffffffffffffffffffffff8262000401565b6200044c868362000401565b95508019841693508086168417925050509392505050565b6000819050919050565b6000819050919050565b600062000499620004936200048d8462000464565b6200046e565b62000464565b9050919050565b6000819050919050565b620004b58362000478565b620004cd620004c482620004a0565b8484546200040e565b825550505050565b600090565b620004e4620004d5565b620004f1818484620004aa565b505050565b5b8181101562000519576200050d600082620004da565b600181019050620004f7565b5050565b601f82111562000568576200053281620003dc565b6200053d84620003f1565b810160208510156200054d578190505b620005656200055c85620003f1565b830182620004f6565b50505b505050565b600082821c905092915050565b60006200058d600019846008026200056d565b1980831691505092915050565b6000620005a883836200057a565b9150826002028217905092915050565b620005c3826200036d565b67ffffffffffffffff811115620005df57620005de62000184565b5b620005eb8254620003a7565b620005f88282856200051d565b600060209050601f8311600181146200063057600084156200061b578287015190505b6200062785826200059a565b86555062000697565b601f1984166200064086620003dc565b60005b828110156200066a5784890151825560018201915060208501945060208101905062000643565b868310156200068a578489015162000686601f8916826200057a565b8355505b6001600288020188555050505b505050505050565b611bbd80620006af6000396000f3fe608060405234801561001057600080fd5b50600436106101165760003560e01c8063715018a6116100a25780639dc29fac116100715780639dc29fac146102cf578063a457c2d7146102eb578063a9059cbb1461031b578063dd62ed3e1461034b578063f2fde38b1461037b57610116565b8063715018a61461026d57806379cc6790146102775780638da5cb5b1461029357806395d89b41146102b157610116565b8063313ce567116100e9578063313ce567146101b757806339509351146101d557806340c10f191461020557806342966c681461022157806370a082311461023d57610116565b806306fdde031461011b578063095ea7b31461013957806318160ddd1461016957806323b872dd14610187575b600080fd5b610123610397565b60405161013091906111b5565b60405180910390f35b610153600480360381019061014e9190611270565b610429565b60405161016091906112cb565b60405180910390f35b61017161044c565b60405161017e91906112f5565b60405180910390f35b6101a1600480360381019061019c9190611310565b610456565b6040516101ae91906112cb565b60405180910390f35b6101bf610485565b6040516101cc919061137f565b60405180910390f35b6101ef60048036038101906101ea9190611270565b61048e565b6040516101fc91906112cb565b60405180910390f35b61021f600480360381019061021a9190611270565b6104c5565b005b61023b6004803603810190610236919061139a565b6104db565b005b610257600480360381019061025291906113c7565b6104ef565b60405161026491906112f5565b60405180910390f35b610275610537565b005b610291600480360381019061028c9190611270565b61054b565b005b61029b61056b565b6040516102a89190611403565b60405180910390f35b6102b9610595565b6040516102c691906111b5565b60405180910390f35b6102e960048036038101906102e49190611270565b610627565b005b61030560048036038101906103009190611270565b61063d565b60405161031291906112cb565b60405180910390f35b61033560048036038101906103309190611270565b6106b4565b60405161034291906112cb565b60405180910390f35b6103656004803603810190610360919061141e565b6106d7565b60405161037291906112f5565b60405180910390f35b610395600480360381019061039091906113c7565b61075e565b005b6060600380546103a69061148d565b80601f01602080910402602001604051908101604052809291908181526020018280546103d29061148d565b801561041f5780601f106103f45761010080835404028352916020019161041f565b820191906000526020600020905b81548152906001019060200180831161040257829003601f168201915b5050505050905090565b6000806104346107e1565b90506104418185856107e9565b600191505092915050565b6000600254905090565b6000806104616107e1565b905061046e8582856109b2565b610479858585610a3e565b60019150509392505050565b60006012905090565b6000806104996107e1565b90506104ba8185856104ab85896106d7565b6104b591906114ed565b6107e9565b600191505092915050565b6104cd610cb4565b6104d78282610d32565b5050565b6104ec6104e66107e1565b82610e88565b50565b60008060008373ffffffffffffffffffffffffffffffffffffffff1673ffffffffffffffffffffffffffffffffffffffff168152602001908152602001600020549050919050565b61053f610cb4565b6105496000611055565b565b61055d826105576107e1565b836109b2565b6105678282610e88565b5050565b6000600560009054906101000a900473ffffffffffffffffffffffffffffffffffffffff16905090565b6060600480546105a49061148d565b80601f01602080910402602001604051908101604052809291908181526020018280546105d09061148d565b801561061d5780601f106105f25761010080835404028352916020019161061d565b820191906000526020600020905b81548152906001019060200180831161060057829003601f168201915b5050505050905090565b61062f610cb4565b6106398282610e88565b5050565b6000806106486107e1565b9050600061065682866106d7565b90508381101561069b576040517f08c379a000000000000000000000000000000000000000000000000000000000815260040161069290611593565b60405180910390fd5b6106a882868684036107e9565b60019250505092915050565b6000806106bf6107e1565b90506106cc818585610a3e565b600191505092915050565b6000600160008473ffffffffffffffffffffffffffffffffffffffff1673ffffffffffffffffffffffffffffffffffffffff16815260200190815260200160002060008373ffffffffffffffffffffffffffffffffffffffff1673ffffffffffffffffffffffffffffffffffffffff16815260200190815260200160002054905092915050565b610766610cb4565b600073ffffffffffffffffffffffffffffffffffffffff168173ffffffffffffffffffffffffffffffffffffffff16036107d5576040517f08c379a00000000000000000000000000000000000000000000000000000000081526004016107cc90611625565b60405180910390fd5b6107de81611055565b50565b600033905090565b600073ffffffffffffffffffffffffffffffffffffffff168373ffffffffffffffffffffffffffffffffffffffff1603610858576040517f08c379a000000000000000000000000000000000000000000000000000000000815260040161084f906116b7565b60405180910390fd5b600073ffffffffffffffffffffffffffffffffffffffff168273ffffffffffffffffffffffffffffffffffffffff16036108c7576040517f08c379a00000000000000000000000000000000000000000000000000000000081526004016108be90611749565b60405180910390fd5b80600160008573ffffffffffffffffffffffffffffffffffffffff1673ffffffffffffffffffffffffffffffffffffffff16815260200190815260200160002060008473ffffffffffffffffffffffffffffffffffffffff1673ffffffffffffffffffffffffffffffffffffffff168152602001908152602001600020819055508173ffffffffffffffffffffffffffffffffffffffff168373ffffffffffffffffffffffffffffffffffffffff167f8c5be1e5ebec7d5bd14f71427d1e84f3dd0314c0f7b2291e5b200ac8c7c3b925836040516109a591906112f5565b60405180910390a3505050565b60006109be84846106d7565b90507fffffffffffffffffffffffffffffffffffffffffffffffffffffffffffffffff8114610a385781811015610a2a576040517f08c379a0000000000000000000000000000000000000000000000000000000008152600401610a21906117b5565b60405180910390fd5b610a3784848484036107e9565b5b50505050565b600073ffffffffffffffffffffffffffffffffffffffff168373ffffffffffffffffffffffffffffffffffffffff1603610aad576040517f08c379a0000000000000000000000000000000000000000000000000000000008152600401610aa490611847565b60405180910390fd5b600073ffffffffffffffffffffffffffffffffffffffff168273ffffffffffffffffffffffffffffffffffffffff1603610b1c576040517f08c379a0000000000000000000000000000000000000000000000000000000008152600401610b13906118d9565b60405180910390fd5b610b2783838361111b565b60008060008573ffffffffffffffffffffffffffffffffffffffff1673ffffffffffffffffffffffffffffffffffffffff16815260200190815260200160002054905081811015610bad576040517f08c379a0000000000000000000000000000000000000000000000000000000008152600401610ba49061196b565b60405180910390fd5b8181036000808673ffffffffffffffffffffffffffffffffffffffff1673ffffffffffffffffffffffffffffffffffffffff16815260200190815260200160002081905550816000808573ffffffffffffffffffffffffffffffffffffffff1673ffffffffffffffffffffffffffffffffffffffff168152602001908152602001600020600082825401925050819055508273ffffffffffffffffffffffffffffffffffffffff168473ffffffffffffffffffffffffffffffffffffffff167fddf252ad1be2c89b69c2b068fc378daa952ba7f163c4a11628f55a4df523b3ef84604051610c9b91906112f5565b60405180910390a3610cae848484611120565b50505050565b610cbc6107e1565b73ffffffffffffffffffffffffffffffffffffffff16610cda61056b565b73ffffffffffffffffffffffffffffffffffffffff1614610d30576040517f08c379a0000000000000000000000000000000000000000000000000000000008152600401610d27906119d7565b60405180910390fd5b565b600073ffffffffffffffffffffffffffffffffffffffff168273ffffffffffffffffffffffffffffffffffffffff1603610da1576040517f08c379a0000000000000000000000000000000000000000000000000000000008152600401610d9890611a43565b60405180910390fd5b610dad6000838361111b565b8060026000828254610dbf91906114ed565b92505081905550806000808473ffffffffffffffffffffffffffffffffffffffff1673ffffffffffffffffffffffffffffffffffffffff168152602001908152602001600020600082825401925050819055508173ffffffffffffffffffffffffffffffffffffffff16600073ffffffffffffffffffffffffffffffffffffffff167fddf252ad1be2c89b69c2b068fc378daa952ba7f163c4a11628f55a4df523b3ef83604051610e7091906112f5565b60405180910390a3610e8460008383611120565b5050565b600073ffffffffffffffffffffffffffffffffffffffff168273ffffffffffffffffffffffffffffffffffffffff1603610ef7576040517f08c379a0000000000000000000000000000000000000000000000000000000008152600401610eee90611ad5565b60405180910390fd5b610f038260008361111b565b60008060008473ffffffffffffffffffffffffffffffffffffffff1673ffffffffffffffffffffffffffffffffffffffff16815260200190815260200160002054905081811015610f89576040517f08c379a0000000000000000000000000000000000000000000000000000000008152600401610f8090611b67565b60405180910390fd5b8181036000808573ffffffffffffffffffffffffffffffffffffffff1673ffffffffffffffffffffffffffffffffffffffff1681526020019081526020016000208190555081600260008282540392505081905550600073ffffffffffffffffffffffffffffffffffffffff168373ffffffffffffffffffffffffffffffffffffffff167fddf252ad1be2c89b69c2b068fc378daa952ba7f163c4a11628f55a4df523b3ef8460405161103c91906112f5565b60405180910390a361105083600084611120565b505050565b6000600560009054906101000a900473ffffffffffffffffffffffffffffffffffffffff16905081600560006101000a81548173ffffffffffffffffffffffffffffffffffffffff021916908373ffffffffffffffffffffffffffffffffffffffff1602179055508173ffffffffffffffffffffffffffffffffffffffff168173ffffffffffffffffffffffffffffffffffffffff167f8be0079c531659141344cd1fd0a4f28419497f9722a3daafe3b4186f6b6457e060405160405180910390a35050565b505050565b505050565b600081519050919050565b600082825260208201905092915050565b60005b8381101561115f578082015181840152602081019050611144565b60008484015250505050565b6000601f19601f8301169050919050565b600061118782611125565b6111918185611130565b93506111a1818560208601611141565b6111aa8161116b565b840191505092915050565b600060208201905081810360008301526111cf818461117c565b905092915050565b600080fd5b600073ffffffffffffffffffffffffffffffffffffffff82169050919050565b6000611207826111dc565b9050919050565b611217816111fc565b811461122257600080fd5b50565b6000813590506112348161120e565b92915050565b6000819050919050565b61124d8161123a565b811461125857600080fd5b50565b60008135905061126a81611244565b92915050565b60008060408385031215611287576112866111d7565b5b600061129585828601611225565b92505060206112a68582860161125b565b9150509250929050565b60008115159050919050565b6112c5816112b0565b82525050565b60006020820190506112e060008301846112bc565b92915050565b6112ef8161123a565b82525050565b600060208201905061130a60008301846112e6565b92915050565b600080600060608486031215611329576113286111d7565b5b600061133786828701611225565b935050602061134886828701611225565b92505060406113598682870161125b565b9150509250925092565b600060ff82169050919050565b61137981611363565b82525050565b60006020820190506113946000830184611370565b92915050565b6000602082840312156113b0576113af6111d7565b5b60006113be8482850161125b565b91505092915050565b6000602082840312156113dd576113dc6111d7565b5b60006113eb84828501611225565b91505092915050565b6113fd816111fc565b82525050565b600060208201905061141860008301846113f4565b92915050565b60008060408385031215611435576114346111d7565b5b600061144385828601611225565b925050602061145485828601611225565b9150509250929050565b7f4e487b7100000000000000000000000000000000000000000000000000000000600052602260045260246000fd5b600060028204905060018216806114a557607f821691505b6020821081036114b8576114b761145e565b5b50919050565b7f4e487b7100000000000000000000000000000000000000000000000000000000600052601160045260246000fd5b60006114f88261123a565b91506115038361123a565b925082820190508082111561151b5761151a6114be565b5b92915050565b7f45524332303a2064656372656173656420616c6c6f77616e63652062656c6f7760008201527f207a65726f000000000000000000000000000000000000000000000000000000602082015250565b600061157d602583611130565b915061158882611521565b604082019050919050565b600060208201905081810360008301526115ac81611570565b9050919050565b7f4f776e61626c653a206e6577206f776e657220697320746865207a65726f206160008201527f6464726573730000000000000000000000000000000000000000000000000000602082015250565b600061160f602683611130565b915061161a826115b3565b604082019050919050565b6000602082019050818103600083015261163e81611602565b9050919050565b7f45524332303a20617070726f76652066726f6d20746865207a65726f2061646460008201527f7265737300000000000000000000000000000000000000000000000000000000602082015250565b60006116a1602483611130565b91506116ac82611645565b604082019050919050565b600060208201905081810360008301526116d081611694565b9050919050565b7f45524332303a20617070726f766520746f20746865207a65726f20616464726560008201527f7373000000000000000000000000000000000000000000000000000000000000602082015250565b6000611733602283611130565b915061173e826116d7565b604082019050919050565b6000602082019050818103600083015261176281611726565b9050919050565b7f45524332303a20696e73756666696369656e7420616c6c6f77616e6365000000600082015250565b600061179f601d83611130565b91506117aa82611769565b602082019050919050565b600060208201905081810360008301526117ce81611792565b9050919050565b7f45524332303a207472616e736665722066726f6d20746865207a65726f20616460008201527f6472657373000000000000000000000000000000000000000000000000000000602082015250565b6000611831602583611130565b915061183c826117d5565b604082019050919050565b6000602082019050818103600083015261186081611824565b9050919050565b7f45524332303a207472616e7366657220746f20746865207a65726f206164647260008201527f6573730000000000000000000000000000000000000000000000000000000000602082015250565b60006118c3602383611130565b91506118ce82611867565b604082019050919050565b600060208201905081810360008301526118f2816118b6565b9050919050565b7f45524332303a207472616e7366657220616d6f756e742065786365656473206260008201527f616c616e63650000000000000000000000000000000000000000000000000000602082015250565b6000611955602683611130565b9150611960826118f9565b604082019050919050565b6000602082019050818103600083015261198481611948565b9050919050565b7f4f776e61626c653a2063616c6c6572206973206e6f7420746865206f776e6572600082015250565b60006119c1602083611130565b91506119cc8261198b565b602082019050919050565b600060208201905081810360008301526119f0816119b4565b9050919050565b7f45524332303a206d696e7420746f20746865207a65726f206164647265737300600082015250565b6000611a2d601f83611130565b9150611a38826119f7565b602082019050919050565b60006020820190508181036000830152611a5c81611a20565b9050919050565b7f45524332303a206275726e2066726f6d20746865207a65726f2061646472657360008201527f7300000000000000000000000000000000000000000000000000000000000000602082015250565b6000611abf602183611130565b9150611aca82611a63565b604082019050919050565b60006020820190508181036000830152611aee81611ab2565b9050919050565b7f45524332303a206275726e20616d6f756e7420657863656564732062616c616e60008201527f6365000000000000000000000000000000000000000000000000000000000000602082015250565b6000611b51602283611130565b9150611b5c82611af5565b604082019050919050565b60006020820190508181036000830152611b8081611b44565b905091905056fea2646970667358221220f5366281d88efde7ddf7fc7710c8f64cb2821319afc9ca58103723b5227ae52464736f6c63430008120033",
  "linkReferences": {},
  "deployedLinkReferences": {}
}